{
  "contractName": "Cplayer",
  "abi": [
    {
      "constant": true,
      "inputs": [
        {
          "name": "",
          "type": "address"
        }
      ],
      "name": "players",
      "outputs": [
        {
          "name": "name",
          "type": "string"
        },
        {
          "name": "PhoneNumber",
          "type": "uint256"
        },
        {
          "name": "Paddress",
          "type": "address"
        },
        {
          "name": "id",
          "type": "uint256"
        }
      ],
      "payable": false,
      "stateMutability": "view",
      "type": "function"
    },
    {
      "inputs": [],
      "payable": false,
      "stateMutability": "nonpayable",
      "type": "constructor"
    },
    {
      "constant": false,
      "inputs": [
        {
          "name": "_name",
          "type": "string"
        },
        {
          "name": "_phonenumber",
          "type": "uint256"
        }
      ],
      "name": "AddPlayer",
      "outputs": [
        {
          "name": "",
          "type": "bool"
        }
      ],
      "payable": false,
      "stateMutability": "nonpayable",
      "type": "function"
    },
    {
      "constant": false,
      "inputs": [
        {
          "name": "_address",
          "type": "address"
        }
      ],
      "name": "RemovePlayer",
      "outputs": [
        {
          "name": "",
          "type": "bool"
        }
      ],
      "payable": false,
      "stateMutability": "nonpayable",
      "type": "function"
    },
    {
      "constant": false,
      "inputs": [
        {
          "name": "_name",
          "type": "string"
        },
        {
          "name": "_phonenumber",
          "type": "uint256"
        },
        {
          "name": "_address",
          "type": "address"
        },
        {
          "name": "_id",
          "type": "uint256"
        }
      ],
      "name": "EditPlayer",
      "outputs": [
        {
          "name": "",
          "type": "bool"
        }
      ],
      "payable": false,
      "stateMutability": "nonpayable",
      "type": "function"
    },
    {
      "constant": false,
      "inputs": [
        {
          "name": "_address",
          "type": "address"
        },
        {
          "name": "_id",
          "type": "uint256"
        }
      ],
      "name": "EditPlayer",
      "outputs": [
        {
          "name": "",
          "type": "bool"
        }
      ],
      "payable": false,
      "stateMutability": "nonpayable",
      "type": "function"
    },
    {
      "constant": true,
      "inputs": [
        {
          "name": "_address",
          "type": "address"
        }
      ],
      "name": "findplayer",
      "outputs": [
        {
          "name": "",
          "type": "string"
        },
        {
          "name": "",
          "type": "uint256"
        },
        {
          "name": "",
          "type": "address"
        }
      ],
      "payable": false,
      "stateMutability": "view",
      "type": "function"
    },
    {
      "constant": true,
      "inputs": [
        {
          "name": "_address",
          "type": "address"
        }
      ],
      "name": "exist",
      "outputs": [
        {
          "name": "",
          "type": "bool"
        }
      ],
      "payable": false,
      "stateMutability": "view",
      "type": "function"
    },
    {
      "constant": true,
      "inputs": [
        {
          "name": "_adress",
          "type": "address"
        }
      ],
      "name": "getplayer",
      "outputs": [
        {
          "components": [
            {
              "name": "name",
              "type": "string"
            },
            {
              "name": "PhoneNumber",
              "type": "uint256"
            },
            {
              "name": "Paddress",
              "type": "address"
            },
            {
              "name": "id",
              "type": "uint256"
            }
          ],
          "name": "",
          "type": "tuple"
        }
      ],
      "payable": false,
      "stateMutability": "view",
      "type": "function"
    }
  ],
  "bytecode": "0x608060405234801561001057600080fd5b50336000806101000a81548173ffffffffffffffffffffffffffffffffffffffff021916908373ffffffffffffffffffffffffffffffffffffffff1602179055506110c7806100606000396000f30060806040526004361061008e576000357c0100000000000000000000000000000000000000000000000000000000900463ffffffff1680630d1da1af1461009357806334aeefd5146100d05780634dfefc4b1461010d5780635c81e1c51461014a5780636247391d1461018957806393a21627146101c6578063c87573a214610203578063e2eb41ff14610240575b600080fd5b34801561009f57600080fd5b506100ba60048036036100b59190810190610cd9565b610280565b6040516100c79190610ea4565b60405180910390f35b3480156100dc57600080fd5b506100f760048036036100f29190810190610c74565b6103ab565b6040516101049190610ea4565b60405180910390f35b34801561011957600080fd5b50610134600480360361012f9190810190610c74565b61049a565b6040516101419190610ea4565b60405180910390f35b34801561015657600080fd5b50610171600480360361016c9190810190610c74565b61051f565b60405161018093929190610ebf565b60405180910390f35b34801561019557600080fd5b506101b060048036036101ab9190810190610d2d565b6106b5565b6040516101bd9190610ea4565b60405180910390f35b3480156101d257600080fd5b506101ed60048036036101e89190810190610c74565b610829565b6040516101fa9190610f49565b60405180910390f35b34801561020f57600080fd5b5061022a60048036036102259190810190610c9d565b61098f565b6040516102379190610ea4565b60405180910390f35b34801561024c57600080fd5b5061026760048036036102629190810190610c74565b6109e2565b6040516102779493929190610efd565b60405180910390f35b600082600160003373ffffffffffffffffffffffffffffffffffffffff1673ffffffffffffffffffffffffffffffffffffffff16815260200190815260200160002060000190805190602001906102d8929190610aca565b5033600160003373ffffffffffffffffffffffffffffffffffffffff1673ffffffffffffffffffffffffffffffffffffffff16815260200190815260200160002060020160006101000a81548173ffffffffffffffffffffffffffffffffffffffff021916908373ffffffffffffffffffffffffffffffffffffffff16021790555081600160003373ffffffffffffffffffffffffffffffffffffffff1673ffffffffffffffffffffffffffffffffffffffff168152602001908152602001600020600101819055506001905092915050565b60008060009054906101000a900473ffffffffffffffffffffffffffffffffffffffff1673ffffffffffffffffffffffffffffffffffffffff163373ffffffffffffffffffffffffffffffffffffffff1614151561040857600080fd5b600160008373ffffffffffffffffffffffffffffffffffffffff1673ffffffffffffffffffffffffffffffffffffffff168152602001908152602001600020600080820160006104589190610b4a565b60018201600090556002820160006101000a81549073ffffffffffffffffffffffffffffffffffffffff02191690556003820160009055505060019050919050565b600080600160008473ffffffffffffffffffffffffffffffffffffffff1673ffffffffffffffffffffffffffffffffffffffff16815260200190815260200160002060020160009054906101000a900473ffffffffffffffffffffffffffffffffffffffff1673ffffffffffffffffffffffffffffffffffffffff1614159050919050565b6060600080600160008573ffffffffffffffffffffffffffffffffffffffff1673ffffffffffffffffffffffffffffffffffffffff168152602001908152602001600020600001600160008673ffffffffffffffffffffffffffffffffffffffff1673ffffffffffffffffffffffffffffffffffffffff16815260200190815260200160002060010154600160008773ffffffffffffffffffffffffffffffffffffffff1673ffffffffffffffffffffffffffffffffffffffff16815260200190815260200160002060020160009054906101000a900473ffffffffffffffffffffffffffffffffffffffff16828054600181600116156101000203166002900480601f0160208091040260200160405190810160405280929190818152602001828054600181600116156101000203166002900480156106a15780601f10610676576101008083540402835291602001916106a1565b820191906000526020600020905b81548152906001019060200180831161068457829003601f168201915b505050505092509250925092509193909250565b600084600160003373ffffffffffffffffffffffffffffffffffffffff1673ffffffffffffffffffffffffffffffffffffffff168152602001908152602001600020600001908051906020019061070d929190610aca565b5083600160003373ffffffffffffffffffffffffffffffffffffffff1673ffffffffffffffffffffffffffffffffffffffff1681526020019081526020016000206001018190555082600160003373ffffffffffffffffffffffffffffffffffffffff1673ffffffffffffffffffffffffffffffffffffffff16815260200190815260200160002060020160006101000a81548173ffffffffffffffffffffffffffffffffffffffff021916908373ffffffffffffffffffffffffffffffffffffffff16021790555081600160003373ffffffffffffffffffffffffffffffffffffffff1673ffffffffffffffffffffffffffffffffffffffff1681526020019081526020016000206003018190555060019050949350505050565b610831610b92565b600160008373ffffffffffffffffffffffffffffffffffffffff1673ffffffffffffffffffffffffffffffffffffffff16815260200190815260200160002060806040519081016040529081600082018054600181600116156101000203166002900480601f0160208091040260200160405190810160405280929190818152602001828054600181600116156101000203166002900480156109155780601f106108ea57610100808354040283529160200191610915565b820191906000526020600020905b8154815290600101906020018083116108f857829003601f168201915b50505050508152602001600182015481526020016002820160009054906101000a900473ffffffffffffffffffffffffffffffffffffffff1673ffffffffffffffffffffffffffffffffffffffff1673ffffffffffffffffffffffffffffffffffffffff1681526020016003820154815250509050919050565b600081600160008573ffffffffffffffffffffffffffffffffffffffff1673ffffffffffffffffffffffffffffffffffffffff168152602001908152602001600020600301819055506001905092915050565b6001602052806000526040600020600091509050806000018054600181600116156101000203166002900480601f016020809104026020016040519081016040528092919081815260200182805460018160011615610100020316600290048015610a8e5780601f10610a6357610100808354040283529160200191610a8e565b820191906000526020600020905b815481529060010190602001808311610a7157829003601f168201915b5050505050908060010154908060020160009054906101000a900473ffffffffffffffffffffffffffffffffffffffff16908060030154905084565b828054600181600116156101000203166002900490600052602060002090601f016020900481019282601f10610b0b57805160ff1916838001178555610b39565b82800160010185558215610b39579182015b82811115610b38578251825591602001919060010190610b1d565b5b509050610b469190610bd1565b5090565b50805460018160011615610100020316600290046000825580601f10610b705750610b8f565b601f016020900490600052602060002090810190610b8e9190610bd1565b5b50565b6080604051908101604052806060815260200160008152602001600073ffffffffffffffffffffffffffffffffffffffff168152602001600081525090565b610bf391905b80821115610bef576000816000905550600101610bd7565b5090565b90565b6000610c028235611010565b905092915050565b600082601f8301121515610c1d57600080fd5b8135610c30610c2b82610f98565b610f6b565b91508082526020830160208301858383011115610c4c57600080fd5b610c5783828461103a565b50505092915050565b6000610c6c8235611030565b905092915050565b600060208284031215610c8657600080fd5b6000610c9484828501610bf6565b91505092915050565b60008060408385031215610cb057600080fd5b6000610cbe85828601610bf6565b9250506020610ccf85828601610c60565b9150509250929050565b60008060408385031215610cec57600080fd5b600083013567ffffffffffffffff811115610d0657600080fd5b610d1285828601610c0a565b9250506020610d2385828601610c60565b9150509250929050565b60008060008060808587031215610d4357600080fd5b600085013567ffffffffffffffff811115610d5d57600080fd5b610d6987828801610c0a565b9450506020610d7a87828801610c60565b9350506040610d8b87828801610bf6565b9250506060610d9c87828801610c60565b91505092959194509250565b610db181610fda565b82525050565b610dc081610ffa565b82525050565b6000610dd182610fcf565b808452610de5816020860160208601611049565b610dee8161107c565b602085010191505092915050565b6000610e0782610fc4565b808452610e1b816020860160208601611049565b610e248161107c565b602085010191505092915050565b60006080830160008301518482036000860152610e4f8282610dfc565b9150506020830151610e646020860182610e95565b506040830151610e776040860182610da8565b506060830151610e8a6060860182610e95565b508091505092915050565b610e9e81611006565b82525050565b6000602082019050610eb96000830184610db7565b92915050565b60006060820190508181036000830152610ed98186610dc6565b9050610ee86020830185610e95565b610ef56040830184610da8565b949350505050565b60006080820190508181036000830152610f178187610dfc565b9050610f266020830186610e95565b610f336040830185610da8565b610f406060830184610e95565b95945050505050565b60006020820190508181036000830152610f638184610e32565b905092915050565b6000604051905081810181811067ffffffffffffffff82111715610f8e57600080fd5b8060405250919050565b600067ffffffffffffffff821115610faf57600080fd5b601f19601f8301169050602081019050919050565b600081519050919050565b600081519050919050565b600073ffffffffffffffffffffffffffffffffffffffff82169050919050565b60008115159050919050565b6000819050919050565b600073ffffffffffffffffffffffffffffffffffffffff82169050919050565b6000819050919050565b82818337600083830152505050565b60005b8381101561106757808201518184015260208101905061104c565b83811115611076576000848401525b50505050565b6000601f19601f83011690509190505600a265627a7a72305820c93491e17bbe409cd81541a6f2d0ebb36568a73379098b3bb45e2e9b6035c7326c6578706572696d656e74616cf50037",
  "source": "pragma solidity ^0.4.24;\npragma experimental ABIEncoderV2;\n\ninterface Itontine{\n\n\n    function join() external payable returns(bool);\n    function ping() external returns (bool);\n    function eliminate(address a) external  returns(bool);\n    function claimReward() external returns (bool);\n    event NewActivePlayerEv(address _address ,uint time);\n    event eliminatedPlayerEv(address _addrss);\n}\n\n contract Cplayer{\n\n\naddress admin;\n    constructor() public {\n        admin=msg.sender;\n    }\n     struct player{\n        string name;\n        uint PhoneNumber;\n        address Paddress;\n        uint id;\n     }\n\n\n    mapping(address=>player) public players;\n\nfunction AddPlayer(string _name, uint256 _phonenumber) public returns (bool){\n players[msg.sender].name=_name;\n players[msg.sender].Paddress=msg.sender;\n players[msg.sender].PhoneNumber=_phonenumber;\nreturn true;\n    }\n\n\n      modifier onlyadmin(){\n        require (msg.sender==admin);\n        _;\n    }\n    function RemovePlayer(address _address) public onlyadmin returns (bool) {\n\n        delete players[_address];\n        return true;\n    }\n\n    function EditPlayer(string _name, uint256 _phonenumber, address _address,uint256 _id) public returns (bool){\n\n        players[msg.sender].name=_name;\n        players[msg.sender].PhoneNumber=_phonenumber;\n        players[msg.sender].Paddress =_address;\n        players[msg.sender].id =_id;\nreturn true;\n    }\n\n  function EditPlayer(address _address,uint256 _id)public returns (bool){\n\n        players[_address].id =_id;\n        return true;\n\n    }\n    function findplayer(address _address) public view returns (string,uint,address){\n        return ( players[_address].name, players[_address].PhoneNumber, players[_address].Paddress);\n    }\n\n    function exist(address _address) public view returns (bool){\n             return  (players[_address].Paddress!=0x00);\n    }\n\nfunction getplayer(address _adress) public view  returns (player){\n    return players[_adress];\n}\n }\n\n\ncontract Ctontine is Itontine {\n\n    mapping (address => uint256 ) public Tpension; // You can store structs as the values of your mapping, not as the key.\n    Cplayer.player[] public active_players;\n    Cplayer.player[] public eliminated_players;\n    mapping(address=>uint) public ping_time;\n    uint256 public indices; //change this to index\n\n    Cplayer  Tplayer;\n\n     constructor(address _CplayerAddress) public {\n         Tplayer= Cplayer(_CplayerAddress);\n\n    }\n\n\n    function eliminate(address PlayerAddress) public{ ////CORRECT SYTANX\n\n      require(now> ping_time[PlayerAddress] +1 days );\n      delete Tpension[PlayerAddress]; // filled with zeros\n      delete active_players[Tplayer.getplayer(PlayerAddress).id];//maybe add id to structs\n      indices -= Tplayer.getplayer(PlayerAddress).id;\n      eliminated_players.push(Tplayer.getplayer(PlayerAddress));\n      Tplayer.EditPlayer(msg.sender,0);\n\n      share_pension(PlayerAddress);\n      emit eliminatedPlayerEv(PlayerAddress);\n\n  }\n\n  function share_pension(address user)internal returns (bool){\n    uint256 remainingP=remaining_players();\n    for(uint i=0; i< active_players.length;i++){\n        if (active_players[i].Paddress!=0x00)\n            Tpension[active_players[i].Paddress]=calcul(Tpension[user],remainingP,18);\n\n        }\n            return true;\n  }\n  \n  function calcul(uint a, uint b, uint precision) public pure returns ( uint) {\n   require (b!=0);\n \n     return a*(10**(precision))/b;\n \n }\n\n\n\n\n  function remaining_players() public view returns (uint256){\n    return (active_players.length-eliminated_players.length);\n  }\n\n function join() public payable returns(bool){\n    require(!Tplayer.exist(msg.sender),\"player doesn't exist\");\n    require(msg.value>=1 && Tpension[msg.sender]==0,\"send higher pension\");\n    Tpension[msg.sender]=msg.value;\n    Tplayer.EditPlayer(msg.sender,active_players.length);\n\n    active_players.push(Tplayer.getplayer(msg.sender));\n    indices +=(active_players.length-1);\n    ping_time[msg.sender]=now;\n    emit NewActivePlayerEv(msg.sender,now);\n    return true;\n}\n\nfunction ping() public {\n\nrequire(isequal(1),\"pinged with number different than 1\");\nping_time[msg.sender]=now;\n\n}\n\nfunction isequal(uint a) pure public returns (bool) {\n        uint x = 0;\n        for (uint i = 0; i < 32; i++) {\n            uint b = uint(msg.data[35 - i]);    //msg.data is of type calldata\n            x += b * 256**i;\n        }\n        return (a == x);\n    }\n\n\n\nfunction claimReward() public returns (bool){\n            require(remaining_players()==1);\n            active_players[indices].Paddress.transfer(address(this).balance);\n            return true;\n}\n\n}\n\n",
  "sourcePath": "/home/user/tontine/contracts/tontine.sol",
  "compiler": {
    "name": "solc",
    "version": "0.4.24+commit.e67f0147.Emscripten.clang"
  },
  "schemaVersion": "2.0.1",
  "updatedAt": "2018-07-12T09:00:36.958Z"
}