{
  "contractName": "Ctontine",
  "abi": [
    {
      "constant": true,
      "inputs": [
        {
          "name": "",
          "type": "uint256"
        }
      ],
      "name": "eliminated_players",
      "outputs": [
        {
          "name": "name",
          "type": "string"
        },
        {
          "name": "PhoneNumber",
          "type": "uint256"
        },
        {
          "name": "Paddress",
          "type": "address"
        },
        {
          "name": "id",
          "type": "uint256"
        }
      ],
      "payable": false,
      "stateMutability": "view",
      "type": "function"
    },
    {
      "constant": true,
      "inputs": [
        {
          "name": "",
          "type": "address"
        }
      ],
      "name": "ping_time",
      "outputs": [
        {
          "name": "",
          "type": "uint256"
        }
      ],
      "payable": false,
      "stateMutability": "view",
      "type": "function"
    },
    {
      "constant": true,
      "inputs": [
        {
          "name": "",
          "type": "uint256"
        }
      ],
      "name": "active_players",
      "outputs": [
        {
          "name": "name",
          "type": "string"
        },
        {
          "name": "PhoneNumber",
          "type": "uint256"
        },
        {
          "name": "Paddress",
          "type": "address"
        },
        {
          "name": "id",
          "type": "uint256"
        }
      ],
      "payable": false,
      "stateMutability": "view",
      "type": "function"
    },
    {
      "constant": true,
      "inputs": [
        {
          "name": "",
          "type": "address"
        }
      ],
      "name": "Tpension",
      "outputs": [
        {
          "name": "",
          "type": "uint256"
        }
      ],
      "payable": false,
      "stateMutability": "view",
      "type": "function"
    },
    {
      "constant": true,
      "inputs": [],
      "name": "Lindex",
      "outputs": [
        {
          "name": "",
          "type": "uint256"
        }
      ],
      "payable": false,
      "stateMutability": "view",
      "type": "function"
    },
    {
      "inputs": [
        {
          "name": "_CplayerAddress",
          "type": "address"
        }
      ],
      "payable": false,
      "stateMutability": "nonpayable",
      "type": "constructor"
    },
    {
      "anonymous": false,
      "inputs": [
        {
          "indexed": false,
          "name": "_address",
          "type": "address"
        },
        {
          "indexed": false,
          "name": "time",
          "type": "uint256"
        }
      ],
      "name": "NewActivePlayerEv",
      "type": "event"
    },
    {
      "anonymous": false,
      "inputs": [
        {
          "indexed": false,
          "name": "_addrss",
          "type": "address"
        }
      ],
      "name": "eliminatedPlayerEv",
      "type": "event"
    },
    {
      "constant": false,
      "inputs": [
        {
          "name": "PlayerAddress",
          "type": "address"
        }
      ],
      "name": "eliminate",
      "outputs": [],
      "payable": false,
      "stateMutability": "nonpayable",
      "type": "function"
    },
    {
      "constant": true,
      "inputs": [
        {
          "name": "a",
          "type": "uint256"
        },
        {
          "name": "b",
          "type": "uint256"
        },
        {
          "name": "precision",
          "type": "uint256"
        }
      ],
      "name": "calcul",
      "outputs": [
        {
          "name": "",
          "type": "uint256"
        }
      ],
      "payable": false,
      "stateMutability": "pure",
      "type": "function"
    },
    {
      "constant": true,
      "inputs": [],
      "name": "remaining_players",
      "outputs": [
        {
          "name": "",
          "type": "uint256"
        }
      ],
      "payable": false,
      "stateMutability": "view",
      "type": "function"
    },
    {
      "constant": false,
      "inputs": [],
      "name": "join",
      "outputs": [
        {
          "name": "",
          "type": "bool"
        }
      ],
      "payable": true,
      "stateMutability": "payable",
      "type": "function"
    },
    {
      "constant": false,
      "inputs": [],
      "name": "ping",
      "outputs": [],
      "payable": false,
      "stateMutability": "nonpayable",
      "type": "function"
    },
    {
      "constant": false,
      "inputs": [],
      "name": "claimReward",
      "outputs": [
        {
          "name": "",
          "type": "bool"
        }
      ],
      "payable": false,
      "stateMutability": "nonpayable",
      "type": "function"
    }
  ],
  "bytecode": "0x608060405234801561001057600080fd5b50604051602080620019258339810180604052610030919081019061008b565b80600560006101000a81548173ffffffffffffffffffffffffffffffffffffffff021916908373ffffffffffffffffffffffffffffffffffffffff160217905550506100d4565b600061008382516100b4565b905092915050565b60006020828403121561009d57600080fd5b60006100ab84828501610077565b91505092915050565b600073ffffffffffffffffffffffffffffffffffffffff82169050919050565b61184180620000e46000396000f3006080604052600436106100af576000357c0100000000000000000000000000000000000000000000000000000000900463ffffffff1680630119ada7146100b45780635c36b186146100dd5780636be98865146100f45780636fe2df871461011f578063802100651461015c578063854742ae1461019c5780638f6d93b7146101d95780639a8f411f14610219578063b688a36314610256578063b88a802f14610274578063d7dc32e11461029f575b600080fd5b3480156100c057600080fd5b506100db60048036036100d691908101906113c7565b6102ca565b005b3480156100e957600080fd5b506100f26107fe565b005b34801561010057600080fd5b50610109610844565b60405161011691906116c6565b60405180910390f35b34801561012b57600080fd5b5061014660048036036101419190810190611483565b610858565b60405161015391906116c6565b60405180910390f35b34801561016857600080fd5b50610183600480360361017e919081019061145a565b610883565b604051610193949392919061163a565b60405180910390f35b3480156101a857600080fd5b506101c360048036036101be91908101906113c7565b61097a565b6040516101d091906116c6565b60405180910390f35b3480156101e557600080fd5b5061020060048036036101fb919081019061145a565b610992565b604051610210949392919061163a565b60405180910390f35b34801561022557600080fd5b50610240600480360361023b91908101906113c7565b610a89565b60405161024d91906116c6565b60405180910390f35b61025e610aa1565b60405161026b919061161f565b60405180910390f35b34801561028057600080fd5b50610289610f69565b604051610296919061161f565b60405180910390f35b3480156102ab57600080fd5b506102b4611028565b6040516102c191906116c6565b60405180910390f35b62015180600360008373ffffffffffffffffffffffffffffffffffffffff1673ffffffffffffffffffffffffffffffffffffffff16815260200190815260200160002054014211151561031c57600080fd5b6000808273ffffffffffffffffffffffffffffffffffffffff1673ffffffffffffffffffffffffffffffffffffffff168152602001908152602001600020600090556001600560009054906101000a900473ffffffffffffffffffffffffffffffffffffffff1673ffffffffffffffffffffffffffffffffffffffff166393a21627836040518263ffffffff167c01000000000000000000000000000000000000000000000000000000000281526004016103d791906115b2565b600060405180830381600087803b1580156103f157600080fd5b505af1158015610405573d6000803e3d6000fd5b505050506040513d6000823e3d601f19601f8201168201806040525061042e9190810190611419565b6060015181548110151561043e57fe5b90600052602060002090600402016000808201600061045d9190611194565b60018201600090556002820160006101000a81549073ffffffffffffffffffffffffffffffffffffffff021916905560038201600090555050600560009054906101000a900473ffffffffffffffffffffffffffffffffffffffff1673ffffffffffffffffffffffffffffffffffffffff166393a21627826040518263ffffffff167c010000000000000000000000000000000000000000000000000000000002815260040161050d91906115b2565b600060405180830381600087803b15801561052757600080fd5b505af115801561053b573d6000803e3d6000fd5b505050506040513d6000823e3d601f19601f820116820180604052506105649190810190611419565b606001516004600082825403925050819055506002600560009054906101000a900473ffffffffffffffffffffffffffffffffffffffff1673ffffffffffffffffffffffffffffffffffffffff166393a21627836040518263ffffffff167c01000000000000000000000000000000000000000000000000000000000281526004016105f091906115b2565b600060405180830381600087803b15801561060a57600080fd5b505af115801561061e573d6000803e3d6000fd5b505050506040513d6000823e3d601f19601f820116820180604052506106479190810190611419565b90806001815401808255809150509060018203906000526020600020906004020160009091929091909150600082015181600001908051906020019061068e9291906111dc565b506020820151816001015560408201518160020160006101000a81548173ffffffffffffffffffffffffffffffffffffffff021916908373ffffffffffffffffffffffffffffffffffffffff16021790555060608201518160030155505050600560009054906101000a900473ffffffffffffffffffffffffffffffffffffffff1673ffffffffffffffffffffffffffffffffffffffff1663c87573a23360006040518363ffffffff167c01000000000000000000000000000000000000000000000000000000000281526004016107679291906115cd565b602060405180830381600087803b15801561078157600080fd5b505af1158015610795573d6000803e3d6000fd5b505050506040513d601f19601f820116820180604052506107b991908101906113f0565b506107c38161102e565b507f4d561b7ba398df48461b39a73417dea1c950164d86f8f61c4cd22f880563b9ea816040516107f391906115b2565b60405180910390a150565b42600360003373ffffffffffffffffffffffffffffffffffffffff1673ffffffffffffffffffffffffffffffffffffffff16815260200190815260200160002081905550565b600060028054905060018054905003905090565b600080831415151561086957600080fd5b8282600a0a850281151561087957fe5b0490509392505050565b60028181548110151561089257fe5b9060005260206000209060040201600091509050806000018054600181600116156101000203166002900480601f01602080910402602001604051908101604052809291908181526020018280546001816001161561010002031660029004801561093e5780601f106109135761010080835404028352916020019161093e565b820191906000526020600020905b81548152906001019060200180831161092157829003601f168201915b5050505050908060010154908060020160009054906101000a900473ffffffffffffffffffffffffffffffffffffffff16908060030154905084565b60036020528060005260406000206000915090505481565b6001818154811015156109a157fe5b9060005260206000209060040201600091509050806000018054600181600116156101000203166002900480601f016020809104026020016040519081016040528092919081815260200182805460018160011615610100020316600290048015610a4d5780601f10610a2257610100808354040283529160200191610a4d565b820191906000526020600020905b815481529060010190602001808311610a3057829003601f168201915b5050505050908060010154908060020160009054906101000a900473ffffffffffffffffffffffffffffffffffffffff16908060030154905084565b60006020528060005260406000206000915090505481565b6000600560009054906101000a900473ffffffffffffffffffffffffffffffffffffffff1673ffffffffffffffffffffffffffffffffffffffff16634dfefc4b336040518263ffffffff167c0100000000000000000000000000000000000000000000000000000000028152600401610b1a91906115b2565b602060405180830381600087803b158015610b3457600080fd5b505af1158015610b48573d6000803e3d6000fd5b505050506040513d601f19601f82011682018060405250610b6c91908101906113f0565b1515610bad576040517f08c379a0000000000000000000000000000000000000000000000000000000008152600401610ba4906116a6565b60405180910390fd5b670de0b6b3a76400003410158015610c03575060008060003373ffffffffffffffffffffffffffffffffffffffff1673ffffffffffffffffffffffffffffffffffffffff16815260200190815260200160002054145b1515610c44576040517f08c379a0000000000000000000000000000000000000000000000000000000008152600401610c3b90611686565b60405180910390fd5b346000803373ffffffffffffffffffffffffffffffffffffffff1673ffffffffffffffffffffffffffffffffffffffff16815260200190815260200160002081905550600560009054906101000a900473ffffffffffffffffffffffffffffffffffffffff1673ffffffffffffffffffffffffffffffffffffffff1663c87573a2336001805490506040518363ffffffff167c0100000000000000000000000000000000000000000000000000000000028152600401610d059291906115f6565b602060405180830381600087803b158015610d1f57600080fd5b505af1158015610d33573d6000803e3d6000fd5b505050506040513d601f19601f82011682018060405250610d5791908101906113f0565b506001600560009054906101000a900473ffffffffffffffffffffffffffffffffffffffff1673ffffffffffffffffffffffffffffffffffffffff166393a21627336040518263ffffffff167c0100000000000000000000000000000000000000000000000000000000028152600401610dd191906115b2565b600060405180830381600087803b158015610deb57600080fd5b505af1158015610dff573d6000803e3d6000fd5b505050506040513d6000823e3d601f19601f82011682018060405250610e289190810190611419565b908060018154018082558091505090600182039060005260206000209060040201600090919290919091506000820151816000019080519060200190610e6f9291906111dc565b506020820151816001015560408201518160020160006101000a81548173ffffffffffffffffffffffffffffffffffffffff021916908373ffffffffffffffffffffffffffffffffffffffff16021790555060608201518160030155505050600180805490500360046000828254019250508190555042600360003373ffffffffffffffffffffffffffffffffffffffff1673ffffffffffffffffffffffffffffffffffffffff168152602001908152602001600020819055507fb0dbc4b7c9e2902ec1f1cce791e77364039b37854011c66691b63afddbbb85bd3342604051610f5a9291906115f6565b60405180910390a16001905090565b60006001610f75610844565b141515610f8157600080fd5b6001600454815481101515610f9257fe5b906000526020600020906004020160020160009054906101000a900473ffffffffffffffffffffffffffffffffffffffff1673ffffffffffffffffffffffffffffffffffffffff166108fc3073ffffffffffffffffffffffffffffffffffffffff16319081150290604051600060405180830381858888f19350505050158015611020573d6000803e3d6000fd5b506001905090565b60045481565b600080600061103b610844565b9150600090505b60018054905081101561118957600060018281548110151561106057fe5b906000526020600020906004020160020160009054906101000a900473ffffffffffffffffffffffffffffffffffffffff1673ffffffffffffffffffffffffffffffffffffffff1614151561117c576110f96000808673ffffffffffffffffffffffffffffffffffffffff1673ffffffffffffffffffffffffffffffffffffffff16815260200190815260200160002054836012610858565b60008060018481548110151561110b57fe5b906000526020600020906004020160020160009054906101000a900473ffffffffffffffffffffffffffffffffffffffff1673ffffffffffffffffffffffffffffffffffffffff1673ffffffffffffffffffffffffffffffffffffffff168152602001908152602001600020819055505b8080600101915050611042565b600192505050919050565b50805460018160011615610100020316600290046000825580601f106111ba57506111d9565b601f0160209004906000526020600020908101906111d8919061125c565b5b50565b828054600181600116156101000203166002900490600052602060002090601f016020900481019282601f1061121d57805160ff191683800117855561124b565b8280016001018555821561124b579182015b8281111561124a57825182559160200191906001019061122f565b5b509050611258919061125c565b5090565b61127e91905b8082111561127a576000816000905550600101611262565b5090565b90565b600061128d823561177b565b905092915050565b60006112a1825161177b565b905092915050565b60006112b5825161179b565b905092915050565b600082601f83011215156112d057600080fd5b81516112e36112de8261170e565b6116e1565b915080825260208301602083018583830111156112ff57600080fd5b61130a8382846117c3565b50505092915050565b60006080828403121561132557600080fd5b61132f60806116e1565b9050600082015167ffffffffffffffff81111561134b57600080fd5b611357848285016112bd565b600083015250602061136b848285016113b3565b602083015250604061137f84828501611295565b6040830152506060611393848285016113b3565b60608301525092915050565b60006113ab82356117a7565b905092915050565b60006113bf82516117a7565b905092915050565b6000602082840312156113d957600080fd5b60006113e784828501611281565b91505092915050565b60006020828403121561140257600080fd5b6000611410848285016112a9565b91505092915050565b60006020828403121561142b57600080fd5b600082015167ffffffffffffffff81111561144557600080fd5b61145184828501611313565b91505092915050565b60006020828403121561146c57600080fd5b600061147a8482850161139f565b91505092915050565b60008060006060848603121561149857600080fd5b60006114a68682870161139f565b93505060206114b78682870161139f565b92505060406114c88682870161139f565b9150509250925092565b6114db81611745565b82525050565b6114ea81611765565b82525050565b6114f9816117b1565b82525050565b600061150a8261173a565b80845261151e8160208601602086016117c3565b611527816117f6565b602085010191505092915050565b6000601382527f73656e64206869676865722070656e73696f6e000000000000000000000000006020830152604082019050919050565b6000601482527f706c6179657220646f65736e27742065786973740000000000000000000000006020830152604082019050919050565b6115ac81611771565b82525050565b60006020820190506115c760008301846114d2565b92915050565b60006040820190506115e260008301856114d2565b6115ef60208301846114f0565b9392505050565b600060408201905061160b60008301856114d2565b61161860208301846115a3565b9392505050565b600060208201905061163460008301846114e1565b92915050565b6000608082019050818103600083015261165481876114ff565b905061166360208301866115a3565b61167060408301856114d2565b61167d60608301846115a3565b95945050505050565b6000602082019050818103600083015261169f81611535565b9050919050565b600060208201905081810360008301526116bf8161156c565b9050919050565b60006020820190506116db60008301846115a3565b92915050565b6000604051905081810181811067ffffffffffffffff8211171561170457600080fd5b8060405250919050565b600067ffffffffffffffff82111561172557600080fd5b601f19601f8301169050602081019050919050565b600081519050919050565b600073ffffffffffffffffffffffffffffffffffffffff82169050919050565b60008115159050919050565b6000819050919050565b600073ffffffffffffffffffffffffffffffffffffffff82169050919050565b60008115159050919050565b6000819050919050565b60006117bc82611771565b9050919050565b60005b838110156117e15780820151818401526020810190506117c6565b838111156117f0576000848401525b50505050565b6000601f19601f83011690509190505600a265627a7a72305820a139ba7e460ba41a99a2d08e718f99928fcd04a448b4d351a7f41fc5a8719fc76c6578706572696d656e74616cf50037",
  "source": "pragma solidity ^0.4.24;\npragma experimental ABIEncoderV2;\n\ninterface Itontine{\n\n\n    function join() external payable returns(bool);\n    function ping() external returns (bool);\n    function eliminate(address a) external  returns(bool);\n    function claimReward() external returns (bool);\n    event NewActivePlayerEv(address _address ,uint time);\n    event eliminatedPlayerEv(address _addrss);\n}\n\n contract Cplayer{\n\n\naddress admin;\n    constructor() public {\n        admin=msg.sender;\n    }\n     struct player{\n        string name;\n        uint PhoneNumber;\n        address Paddress;\n        uint id;\n     }\n\n\n    mapping(address=>player) public players;\n\nfunction AddPlayer(string _name, uint256 _phonenumber) public returns (bool){\n players[msg.sender].name=_name;\n players[msg.sender].Paddress=msg.sender;\n players[msg.sender].PhoneNumber=_phonenumber;\nreturn true;\n    }\n\n\n      modifier onlyadmin(){\n        require (msg.sender==admin);\n        _;\n    }\n    function RemovePlayer(address _address) public onlyadmin returns (bool) {\n\n        delete players[_address];\n        return true;\n    }\n\n    function EditPlayer(string _name, uint256 _phonenumber, address _address,uint256 _id) public returns (bool){\n\n        players[msg.sender].name=_name;\n        players[msg.sender].PhoneNumber=_phonenumber;\n        players[msg.sender].Paddress =_address;\n        players[msg.sender].id =_id;\nreturn true;\n    }\n\n  function EditPlayer(address _address,uint256 _id)public returns (bool){\n\n        players[_address].id =_id;\n        return true;\n\n    }\n    function findplayer(address _address) public view returns (string,uint,address){\n        return ( players[_address].name, players[_address].PhoneNumber, players[_address].Paddress);\n    }\n\n    function exist(address _address) public view returns (bool){\n             return  (players[_address].Paddress!=0x00);\n    }\n\nfunction getplayer(address _adress) public view  returns (player){\n    return players[_adress];\n}\n }\n\n\ncontract Ctontine is Itontine {\n\n    mapping (address => uint256 ) public Tpension; // You can store structs as the values of your mapping, not as the key.\n    Cplayer.player[] public active_players;\n    Cplayer.player[] public eliminated_players;\n    mapping(address=>uint) public ping_time;\n    uint256 public Lindex; //change this to index\n\n    Cplayer  Tplayer;\n\n     constructor(address _CplayerAddress) public {\n         Tplayer= Cplayer(_CplayerAddress);\n\n    }\n\n\n    function eliminate(address PlayerAddress) public{  \n\n      require(now> ping_time[PlayerAddress] +1 days );\n      delete Tpension[PlayerAddress]; // filled with zeros\n      delete active_players[Tplayer.getplayer(PlayerAddress).id];//maybe add id to structs\n      Lindex -= Tplayer.getplayer(PlayerAddress).id;\n      eliminated_players.push(Tplayer.getplayer(PlayerAddress));\n      Tplayer.EditPlayer(msg.sender,0);\n\n      share_pension(PlayerAddress);\n      emit eliminatedPlayerEv(PlayerAddress);\n\n  }\n\n  function share_pension(address user)internal returns (bool){\n    uint256 remainingP=remaining_players();\n    for(uint i=0; i< active_players.length;i++){\n        if (active_players[i].Paddress!=0x00)\n            Tpension[active_players[i].Paddress]=calcul(Tpension[user],remainingP,18);\n\n        }\n            return true;\n  }\n  \n  function calcul(uint a, uint b, uint precision) public pure returns ( uint) {\n   require (b!=0);\n \n     return a*(10**(precision))/b;\n \n }\n\n\n\n\n  function remaining_players() public view returns (uint256){\n    return (active_players.length-eliminated_players.length);\n  }\n\n function join() public payable returns(bool){\n    require(Tplayer.exist(msg.sender),\"player doesn't exist\");\n    require(msg.value>=1 ether && Tpension[msg.sender]==0,\"send higher pension\");\n    Tpension[msg.sender]=msg.value;\n    Tplayer.EditPlayer(msg.sender,active_players.length);\n\n    active_players.push(Tplayer.getplayer(msg.sender));\n    Lindex +=(active_players.length-1);\n    ping_time[msg.sender]=now;\n    emit NewActivePlayerEv(msg.sender,now);\n    return true;\n}\n\nfunction ping() public {\n\nping_time[msg.sender]=now;\n\n}\n \n\nfunction claimReward() public returns (bool){\n            require(remaining_players()==1);\n            active_players[Lindex].Paddress.transfer(address(this).balance);\n            return true;\n}\n\n}\n\n",
  "sourcePath": "/home/user/tontine/contracts/tontine.sol",
  "compiler": {
    "name": "solc",
    "version": "0.4.24+commit.e67f0147.Emscripten.clang"
  },
  "schemaVersion": "2.0.1",
  "updatedAt": "2018-07-21T12:13:56.486Z"
}