{
  "contractName": "Ctontine",
  "abi": [
    {
      "constant": true,
      "inputs": [],
      "name": "indices",
      "outputs": [
        {
          "name": "",
          "type": "uint256"
        }
      ],
      "payable": false,
      "stateMutability": "view",
      "type": "function"
    },
    {
      "constant": true,
      "inputs": [
        {
          "name": "",
          "type": "uint256"
        }
      ],
      "name": "eliminated_players",
      "outputs": [
        {
          "name": "name",
          "type": "string"
        },
        {
          "name": "PhoneNumber",
          "type": "uint256"
        },
        {
          "name": "Paddress",
          "type": "address"
        },
        {
          "name": "id",
          "type": "uint256"
        }
      ],
      "payable": false,
      "stateMutability": "view",
      "type": "function"
    },
    {
      "constant": true,
      "inputs": [
        {
          "name": "",
          "type": "address"
        }
      ],
      "name": "ping_time",
      "outputs": [
        {
          "name": "",
          "type": "uint256"
        }
      ],
      "payable": false,
      "stateMutability": "view",
      "type": "function"
    },
    {
      "constant": true,
      "inputs": [
        {
          "name": "",
          "type": "uint256"
        }
      ],
      "name": "active_players",
      "outputs": [
        {
          "name": "name",
          "type": "string"
        },
        {
          "name": "PhoneNumber",
          "type": "uint256"
        },
        {
          "name": "Paddress",
          "type": "address"
        },
        {
          "name": "id",
          "type": "uint256"
        }
      ],
      "payable": false,
      "stateMutability": "view",
      "type": "function"
    },
    {
      "constant": true,
      "inputs": [
        {
          "name": "",
          "type": "address"
        }
      ],
      "name": "Tpension",
      "outputs": [
        {
          "name": "",
          "type": "uint256"
        }
      ],
      "payable": false,
      "stateMutability": "view",
      "type": "function"
    },
    {
      "inputs": [
        {
          "name": "_CplayerAddress",
          "type": "address"
        }
      ],
      "payable": false,
      "stateMutability": "nonpayable",
      "type": "constructor"
    },
    {
      "anonymous": false,
      "inputs": [
        {
          "indexed": false,
          "name": "_address",
          "type": "address"
        },
        {
          "indexed": false,
          "name": "time",
          "type": "uint256"
        }
      ],
      "name": "NewActivePlayerEv",
      "type": "event"
    },
    {
      "anonymous": false,
      "inputs": [
        {
          "indexed": false,
          "name": "_addrss",
          "type": "address"
        }
      ],
      "name": "eliminatedPlayerEv",
      "type": "event"
    },
    {
      "constant": false,
      "inputs": [
        {
          "name": "PlayerAddress",
          "type": "address"
        }
      ],
      "name": "eliminate",
      "outputs": [],
      "payable": false,
      "stateMutability": "nonpayable",
      "type": "function"
    },
    {
      "constant": true,
      "inputs": [
        {
          "name": "a",
          "type": "uint256"
        },
        {
          "name": "b",
          "type": "uint256"
        },
        {
          "name": "precision",
          "type": "uint256"
        }
      ],
      "name": "calcul",
      "outputs": [
        {
          "name": "",
          "type": "uint256"
        }
      ],
      "payable": false,
      "stateMutability": "pure",
      "type": "function"
    },
    {
      "constant": true,
      "inputs": [],
      "name": "remaining_players",
      "outputs": [
        {
          "name": "",
          "type": "uint256"
        }
      ],
      "payable": false,
      "stateMutability": "view",
      "type": "function"
    },
    {
      "constant": false,
      "inputs": [],
      "name": "join",
      "outputs": [
        {
          "name": "",
          "type": "bool"
        }
      ],
      "payable": true,
      "stateMutability": "payable",
      "type": "function"
    },
    {
      "constant": false,
      "inputs": [],
      "name": "ping",
      "outputs": [],
      "payable": false,
      "stateMutability": "nonpayable",
      "type": "function"
    },
    {
      "constant": true,
      "inputs": [
        {
          "name": "a",
          "type": "uint256"
        }
      ],
      "name": "isequal",
      "outputs": [
        {
          "name": "",
          "type": "bool"
        }
      ],
      "payable": false,
      "stateMutability": "pure",
      "type": "function"
    },
    {
      "constant": false,
      "inputs": [],
      "name": "claimReward",
      "outputs": [
        {
          "name": "",
          "type": "bool"
        }
      ],
      "payable": false,
      "stateMutability": "nonpayable",
      "type": "function"
    }
  ],
  "bytecode": "0x60806040523480156200001157600080fd5b5060405160208062001b17833981018060405262000033919081019062000091565b80600560006101000a81548173ffffffffffffffffffffffffffffffffffffffff021916908373ffffffffffffffffffffffffffffffffffffffff16021790555050620000dd565b6000620000898251620000bd565b905092915050565b600060208284031215620000a457600080fd5b6000620000b4848285016200007b565b91505092915050565b600073ffffffffffffffffffffffffffffffffffffffff82169050919050565b611a2a80620000ed6000396000f3006080604052600436106100ba576000357c0100000000000000000000000000000000000000000000000000000000900463ffffffff1680630119ada7146100bf5780632b7eafd2146100e85780635c36b186146101135780636be988651461012a5780636fe2df87146101555780638021006514610192578063854742ae146101d25780638f6d93b71461020f5780639a8f411f1461024f578063af1371751461028c578063b688a363146102c9578063b88a802f146102e7575b600080fd5b3480156100cb57600080fd5b506100e660048036036100e19190810190611533565b610312565b005b3480156100f457600080fd5b506100fd610846565b60405161010a91906118af565b60405180910390f35b34801561011f57600080fd5b5061012861084c565b005b34801561013657600080fd5b5061013f6108dd565b60405161014c91906118af565b60405180910390f35b34801561016157600080fd5b5061017c600480360361017791908101906115ef565b6108f1565b60405161018991906118af565b60405180910390f35b34801561019e57600080fd5b506101b960048036036101b491908101906115c6565b61091c565b6040516101c99493929190611803565b60405180910390f35b3480156101de57600080fd5b506101f960048036036101f49190810190611533565b610a13565b60405161020691906118af565b60405180910390f35b34801561021b57600080fd5b50610236600480360361023191908101906115c6565b610a2b565b6040516102469493929190611803565b60405180910390f35b34801561025b57600080fd5b5061027660048036036102719190810190611533565b610b22565b60405161028391906118af565b60405180910390f35b34801561029857600080fd5b506102b360048036036102ae91908101906115c6565b610b3a565b6040516102c091906117e8565b60405180910390f35b6102d1610c19565b6040516102de91906117e8565b60405180910390f35b3480156102f357600080fd5b506102fc6110db565b60405161030991906117e8565b60405180910390f35b62015180600360008373ffffffffffffffffffffffffffffffffffffffff1673ffffffffffffffffffffffffffffffffffffffff16815260200190815260200160002054014211151561036457600080fd5b6000808273ffffffffffffffffffffffffffffffffffffffff1673ffffffffffffffffffffffffffffffffffffffff168152602001908152602001600020600090556001600560009054906101000a900473ffffffffffffffffffffffffffffffffffffffff1673ffffffffffffffffffffffffffffffffffffffff166393a21627836040518263ffffffff167c010000000000000000000000000000000000000000000000000000000002815260040161041f919061177b565b600060405180830381600087803b15801561043957600080fd5b505af115801561044d573d6000803e3d6000fd5b505050506040513d6000823e3d601f19601f820116820180604052506104769190810190611585565b6060015181548110151561048657fe5b9060005260206000209060040201600080820160006104a59190611300565b60018201600090556002820160006101000a81549073ffffffffffffffffffffffffffffffffffffffff021916905560038201600090555050600560009054906101000a900473ffffffffffffffffffffffffffffffffffffffff1673ffffffffffffffffffffffffffffffffffffffff166393a21627826040518263ffffffff167c0100000000000000000000000000000000000000000000000000000000028152600401610555919061177b565b600060405180830381600087803b15801561056f57600080fd5b505af1158015610583573d6000803e3d6000fd5b505050506040513d6000823e3d601f19601f820116820180604052506105ac9190810190611585565b606001516004600082825403925050819055506002600560009054906101000a900473ffffffffffffffffffffffffffffffffffffffff1673ffffffffffffffffffffffffffffffffffffffff166393a21627836040518263ffffffff167c0100000000000000000000000000000000000000000000000000000000028152600401610638919061177b565b600060405180830381600087803b15801561065257600080fd5b505af1158015610666573d6000803e3d6000fd5b505050506040513d6000823e3d601f19601f8201168201806040525061068f9190810190611585565b9080600181540180825580915050906001820390600052602060002090600402016000909192909190915060008201518160000190805190602001906106d6929190611348565b506020820151816001015560408201518160020160006101000a81548173ffffffffffffffffffffffffffffffffffffffff021916908373ffffffffffffffffffffffffffffffffffffffff16021790555060608201518160030155505050600560009054906101000a900473ffffffffffffffffffffffffffffffffffffffff1673ffffffffffffffffffffffffffffffffffffffff1663c87573a23360006040518363ffffffff167c01000000000000000000000000000000000000000000000000000000000281526004016107af929190611796565b602060405180830381600087803b1580156107c957600080fd5b505af11580156107dd573d6000803e3d6000fd5b505050506040513d601f19601f82011682018060405250610801919081019061155c565b5061080b8161119a565b507f4d561b7ba398df48461b39a73417dea1c950164d86f8f61c4cd22f880563b9ea8160405161083b919061177b565b60405180910390a150565b60045481565b6108566001610b3a565b1515610897576040517f08c379a000000000000000000000000000000000000000000000000000000000815260040161088e9061186f565b60405180910390fd5b42600360003373ffffffffffffffffffffffffffffffffffffffff1673ffffffffffffffffffffffffffffffffffffffff16815260200190815260200160002081905550565b600060028054905060018054905003905090565b600080831415151561090257600080fd5b8282600a0a850281151561091257fe5b0490509392505050565b60028181548110151561092b57fe5b9060005260206000209060040201600091509050806000018054600181600116156101000203166002900480601f0160208091040260200160405190810160405280929190818152602001828054600181600116156101000203166002900480156109d75780601f106109ac576101008083540402835291602001916109d7565b820191906000526020600020905b8154815290600101906020018083116109ba57829003601f168201915b5050505050908060010154908060020160009054906101000a900473ffffffffffffffffffffffffffffffffffffffff16908060030154905084565b60036020528060005260406000206000915090505481565b600181815481101515610a3a57fe5b9060005260206000209060040201600091509050806000018054600181600116156101000203166002900480601f016020809104026020016040519081016040528092919081815260200182805460018160011615610100020316600290048015610ae65780601f10610abb57610100808354040283529160200191610ae6565b820191906000526020600020905b815481529060010190602001808311610ac957829003601f168201915b5050505050908060010154908060020160009054906101000a900473ffffffffffffffffffffffffffffffffffffffff16908060030154905084565b60006020528060005260406000206000915090505481565b60008060008060009250600091505b6020821015610c0c57600036836023038181101515610b6457fe5b905001357f010000000000000000000000000000000000000000000000000000000000000090047f0100000000000000000000000000000000000000000000000000000000000000027effffffffffffffffffffffffffffffffffffffffffffffffffffffffffffff19167f010000000000000000000000000000000000000000000000000000000000000090049050816101000a8102830192508180600101925050610b49565b8285149350505050919050565b6000600560009054906101000a900473ffffffffffffffffffffffffffffffffffffffff1673ffffffffffffffffffffffffffffffffffffffff16634dfefc4b336040518263ffffffff167c0100000000000000000000000000000000000000000000000000000000028152600401610c92919061177b565b602060405180830381600087803b158015610cac57600080fd5b505af1158015610cc0573d6000803e3d6000fd5b505050506040513d601f19601f82011682018060405250610ce4919081019061155c565b151515610d26576040517f08c379a0000000000000000000000000000000000000000000000000000000008152600401610d1d9061188f565b60405180910390fd5b60013410158015610d75575060008060003373ffffffffffffffffffffffffffffffffffffffff1673ffffffffffffffffffffffffffffffffffffffff16815260200190815260200160002054145b1515610db6576040517f08c379a0000000000000000000000000000000000000000000000000000000008152600401610dad9061184f565b60405180910390fd5b346000803373ffffffffffffffffffffffffffffffffffffffff1673ffffffffffffffffffffffffffffffffffffffff16815260200190815260200160002081905550600560009054906101000a900473ffffffffffffffffffffffffffffffffffffffff1673ffffffffffffffffffffffffffffffffffffffff1663c87573a2336001805490506040518363ffffffff167c0100000000000000000000000000000000000000000000000000000000028152600401610e779291906117bf565b602060405180830381600087803b158015610e9157600080fd5b505af1158015610ea5573d6000803e3d6000fd5b505050506040513d601f19601f82011682018060405250610ec9919081019061155c565b506001600560009054906101000a900473ffffffffffffffffffffffffffffffffffffffff1673ffffffffffffffffffffffffffffffffffffffff166393a21627336040518263ffffffff167c0100000000000000000000000000000000000000000000000000000000028152600401610f43919061177b565b600060405180830381600087803b158015610f5d57600080fd5b505af1158015610f71573d6000803e3d6000fd5b505050506040513d6000823e3d601f19601f82011682018060405250610f9a9190810190611585565b908060018154018082558091505090600182039060005260206000209060040201600090919290919091506000820151816000019080519060200190610fe1929190611348565b506020820151816001015560408201518160020160006101000a81548173ffffffffffffffffffffffffffffffffffffffff021916908373ffffffffffffffffffffffffffffffffffffffff16021790555060608201518160030155505050600180805490500360046000828254019250508190555042600360003373ffffffffffffffffffffffffffffffffffffffff1673ffffffffffffffffffffffffffffffffffffffff168152602001908152602001600020819055507fb0dbc4b7c9e2902ec1f1cce791e77364039b37854011c66691b63afddbbb85bd33426040516110cc9291906117bf565b60405180910390a16001905090565b600060016110e76108dd565b1415156110f357600080fd5b600160045481548110151561110457fe5b906000526020600020906004020160020160009054906101000a900473ffffffffffffffffffffffffffffffffffffffff1673ffffffffffffffffffffffffffffffffffffffff166108fc3073ffffffffffffffffffffffffffffffffffffffff16319081150290604051600060405180830381858888f19350505050158015611192573d6000803e3d6000fd5b506001905090565b60008060006111a76108dd565b9150600090505b6001805490508110156112f55760006001828154811015156111cc57fe5b906000526020600020906004020160020160009054906101000a900473ffffffffffffffffffffffffffffffffffffffff1673ffffffffffffffffffffffffffffffffffffffff161415156112e8576112656000808673ffffffffffffffffffffffffffffffffffffffff1673ffffffffffffffffffffffffffffffffffffffff168152602001908152602001600020548360126108f1565b60008060018481548110151561127757fe5b906000526020600020906004020160020160009054906101000a900473ffffffffffffffffffffffffffffffffffffffff1673ffffffffffffffffffffffffffffffffffffffff1673ffffffffffffffffffffffffffffffffffffffff168152602001908152602001600020819055505b80806001019150506111ae565b600192505050919050565b50805460018160011615610100020316600290046000825580601f106113265750611345565b601f01602090049060005260206000209081019061134491906113c8565b5b50565b828054600181600116156101000203166002900490600052602060002090601f016020900481019282601f1061138957805160ff19168380011785556113b7565b828001600101855582156113b7579182015b828111156113b657825182559160200191906001019061139b565b5b5090506113c491906113c8565b5090565b6113ea91905b808211156113e65760008160009055506001016113ce565b5090565b90565b60006113f98235611964565b905092915050565b600061140d8251611964565b905092915050565b60006114218251611984565b905092915050565b600082601f830112151561143c57600080fd5b815161144f61144a826118f7565b6118ca565b9150808252602083016020830185838301111561146b57600080fd5b6114768382846119ac565b50505092915050565b60006080828403121561149157600080fd5b61149b60806118ca565b9050600082015167ffffffffffffffff8111156114b757600080fd5b6114c384828501611429565b60008301525060206114d78482850161151f565b60208301525060406114eb84828501611401565b60408301525060606114ff8482850161151f565b60608301525092915050565b60006115178235611990565b905092915050565b600061152b8251611990565b905092915050565b60006020828403121561154557600080fd5b6000611553848285016113ed565b91505092915050565b60006020828403121561156e57600080fd5b600061157c84828501611415565b91505092915050565b60006020828403121561159757600080fd5b600082015167ffffffffffffffff8111156115b157600080fd5b6115bd8482850161147f565b91505092915050565b6000602082840312156115d857600080fd5b60006115e68482850161150b565b91505092915050565b60008060006060848603121561160457600080fd5b60006116128682870161150b565b93505060206116238682870161150b565b92505060406116348682870161150b565b9150509250925092565b6116478161192e565b82525050565b6116568161194e565b82525050565b6116658161199a565b82525050565b600061167682611923565b80845261168a8160208601602086016119ac565b611693816119df565b602085010191505092915050565b6000601382527f73656e64206869676865722070656e73696f6e000000000000000000000000006020830152604082019050919050565b6000602382527f70696e6765642077697468206e756d62657220646966666572656e742074686160208301527f6e203100000000000000000000000000000000000000000000000000000000006040830152606082019050919050565b6000601482527f706c6179657220646f65736e27742065786973740000000000000000000000006020830152604082019050919050565b6117758161195a565b82525050565b6000602082019050611790600083018461163e565b92915050565b60006040820190506117ab600083018561163e565b6117b8602083018461165c565b9392505050565b60006040820190506117d4600083018561163e565b6117e1602083018461176c565b9392505050565b60006020820190506117fd600083018461164d565b92915050565b6000608082019050818103600083015261181d818761166b565b905061182c602083018661176c565b611839604083018561163e565b611846606083018461176c565b95945050505050565b60006020820190508181036000830152611868816116a1565b9050919050565b60006020820190508181036000830152611888816116d8565b9050919050565b600060208201905081810360008301526118a881611735565b9050919050565b60006020820190506118c4600083018461176c565b92915050565b6000604051905081810181811067ffffffffffffffff821117156118ed57600080fd5b8060405250919050565b600067ffffffffffffffff82111561190e57600080fd5b601f19601f8301169050602081019050919050565b600081519050919050565b600073ffffffffffffffffffffffffffffffffffffffff82169050919050565b60008115159050919050565b6000819050919050565b600073ffffffffffffffffffffffffffffffffffffffff82169050919050565b60008115159050919050565b6000819050919050565b60006119a58261195a565b9050919050565b60005b838110156119ca5780820151818401526020810190506119af565b838111156119d9576000848401525b50505050565b6000601f19601f83011690509190505600a265627a7a723058205c7b3f36883a9567421e128505ea4992285d6a1c933b806c6ce564be7bd147be6c6578706572696d656e74616cf50037",
  "source": "pragma solidity ^0.4.24;\npragma experimental ABIEncoderV2;\n\ninterface Itontine{\n\n\n    function join() external payable returns(bool);\n    function ping() external returns (bool);\n    function eliminate(address a) external  returns(bool);\n    function claimReward() external returns (bool);\n    event NewActivePlayerEv(address _address ,uint time);\n    event eliminatedPlayerEv(address _addrss);\n}\n\n contract Cplayer{\n\n\naddress admin;\n    constructor() public {\n        admin=msg.sender;\n    }\n     struct player{\n        string name;\n        uint PhoneNumber;\n        address Paddress;\n        uint id;\n     }\n\n\n    mapping(address=>player) public players;\n\nfunction AddPlayer(string _name, uint256 _phonenumber) public returns (bool){\n players[msg.sender].name=_name;\n players[msg.sender].Paddress=msg.sender;\n players[msg.sender].PhoneNumber=_phonenumber;\nreturn true;\n    }\n\n\n      modifier onlyadmin(){\n        require (msg.sender==admin);\n        _;\n    }\n    function RemovePlayer(address _address) public onlyadmin returns (bool) {\n\n        delete players[_address];\n        return true;\n    }\n\n    function EditPlayer(string _name, uint256 _phonenumber, address _address,uint256 _id) public returns (bool){\n\n        players[msg.sender].name=_name;\n        players[msg.sender].PhoneNumber=_phonenumber;\n        players[msg.sender].Paddress =_address;\n        players[msg.sender].id =_id;\nreturn true;\n    }\n\n  function EditPlayer(address _address,uint256 _id)public returns (bool){\n\n        players[_address].id =_id;\n        return true;\n\n    }\n    function findplayer(address _address) public view returns (string,uint,address){\n        return ( players[_address].name, players[_address].PhoneNumber, players[_address].Paddress);\n    }\n\n    function exist(address _address) public view returns (bool){\n             return  (players[_address].Paddress!=0x00);\n    }\n\nfunction getplayer(address _adress) public view  returns (player){\n    return players[_adress];\n}\n }\n\n\ncontract Ctontine is Itontine {\n\n    mapping (address => uint256 ) public Tpension; // You can store structs as the values of your mapping, not as the key.\n    Cplayer.player[] public active_players;\n    Cplayer.player[] public eliminated_players;\n    mapping(address=>uint) public ping_time;\n    uint256 public indices; //change this to index\n\n    Cplayer  Tplayer;\n\n     constructor(address _CplayerAddress) public {\n         Tplayer= Cplayer(_CplayerAddress);\n\n    }\n\n\n    function eliminate(address PlayerAddress) public{ ////CORRECT SYTANX\n\n      require(now> ping_time[PlayerAddress] +1 days );\n      delete Tpension[PlayerAddress]; // filled with zeros\n      delete active_players[Tplayer.getplayer(PlayerAddress).id];//maybe add id to structs\n      indices -= Tplayer.getplayer(PlayerAddress).id;\n      eliminated_players.push(Tplayer.getplayer(PlayerAddress));\n      Tplayer.EditPlayer(msg.sender,0);\n\n      share_pension(PlayerAddress);\n      emit eliminatedPlayerEv(PlayerAddress);\n\n  }\n\n  function share_pension(address user)internal returns (bool){\n    uint256 remainingP=remaining_players();\n    for(uint i=0; i< active_players.length;i++){\n        if (active_players[i].Paddress!=0x00)\n            Tpension[active_players[i].Paddress]=calcul(Tpension[user],remainingP,18);\n\n        }\n            return true;\n  }\n  \n  function calcul(uint a, uint b, uint precision) public pure returns ( uint) {\n   require (b!=0);\n \n     return a*(10**(precision))/b;\n \n }\n\n\n\n\n  function remaining_players() public view returns (uint256){\n    return (active_players.length-eliminated_players.length);\n  }\n\n function join() public payable returns(bool){\n    require(!Tplayer.exist(msg.sender),\"player doesn't exist\");\n    require(msg.value>=1 && Tpension[msg.sender]==0,\"send higher pension\");\n    Tpension[msg.sender]=msg.value;\n    Tplayer.EditPlayer(msg.sender,active_players.length);\n\n    active_players.push(Tplayer.getplayer(msg.sender));\n    indices +=(active_players.length-1);\n    ping_time[msg.sender]=now;\n    emit NewActivePlayerEv(msg.sender,now);\n    return true;\n}\n\nfunction ping() public {\n\nrequire(isequal(1),\"pinged with number different than 1\");\nping_time[msg.sender]=now;\n\n}\n\nfunction isequal(uint a) pure public returns (bool) {\n        uint x = 0;\n        for (uint i = 0; i < 32; i++) {\n            uint b = uint(msg.data[35 - i]);    //msg.data is of type calldata\n            x += b * 256**i;\n        }\n        return (a == x);\n    }\n\n\n\nfunction claimReward() public returns (bool){\n            require(remaining_players()==1);\n            active_players[indices].Paddress.transfer(address(this).balance);\n            return true;\n}\n\n}\n\n",
  "sourcePath": "/home/user/tontine/contracts/tontine.sol",
  "compiler": {
    "name": "solc",
    "version": "0.4.24+commit.e67f0147.Emscripten.clang"
  },
  "schemaVersion": "2.0.1",
  "updatedAt": "2018-07-12T09:00:36.942Z"
}